{
  "contractName": "Crowdsale",
  "abi": [
    {
      "constant": true,
      "inputs": [],
      "name": "rate",
      "outputs": [
        {
          "name": "",
          "type": "uint256"
        }
      ],
      "payable": false,
      "stateMutability": "view",
      "type": "function"
    },
    {
      "constant": true,
      "inputs": [],
      "name": "endTime",
      "outputs": [
        {
          "name": "",
          "type": "uint256"
        }
      ],
      "payable": false,
      "stateMutability": "view",
      "type": "function"
    },
    {
      "constant": true,
      "inputs": [],
      "name": "wallet",
      "outputs": [
        {
          "name": "",
          "type": "address"
        }
      ],
      "payable": false,
      "stateMutability": "view",
      "type": "function"
    },
    {
      "constant": true,
      "inputs": [],
      "name": "startTime",
      "outputs": [
        {
          "name": "",
          "type": "uint256"
        }
      ],
      "payable": false,
      "stateMutability": "view",
      "type": "function"
    },
    {
      "constant": true,
      "inputs": [],
      "name": "token",
      "outputs": [
        {
          "name": "",
          "type": "address"
        }
      ],
      "payable": false,
      "stateMutability": "view",
      "type": "function"
    },
    {
      "inputs": [
        {
          "name": "_startTime",
          "type": "uint256"
        },
        {
          "name": "_endTime",
          "type": "uint256"
        },
        {
          "name": "_rate",
          "type": "uint256"
        },
        {
          "name": "_wallet",
          "type": "address"
        }
      ],
      "payable": false,
      "stateMutability": "nonpayable",
      "type": "constructor"
    },
    {
      "payable": true,
      "stateMutability": "payable",
      "type": "fallback"
    },
    {
      "anonymous": false,
      "inputs": [
        {
          "indexed": true,
          "name": "purchaser",
          "type": "address"
        },
        {
          "indexed": true,
          "name": "beneficiary",
          "type": "address"
        },
        {
          "indexed": false,
          "name": "value",
          "type": "uint256"
        },
        {
          "indexed": false,
          "name": "amount",
          "type": "uint256"
        }
      ],
      "name": "TokenPurchase",
      "type": "event"
    },
    {
      "constant": false,
      "inputs": [
        {
          "name": "beneficiary",
          "type": "address"
        }
      ],
      "name": "buyTokens",
      "outputs": [],
      "payable": true,
      "stateMutability": "payable",
      "type": "function"
    },
    {
      "constant": true,
      "inputs": [],
      "name": "hasEnded",
      "outputs": [
        {
          "name": "",
          "type": "bool"
        }
      ],
      "payable": false,
      "stateMutability": "view",
      "type": "function"
    }
  ],
  "bytecode": "0x6060604052341561000f57600080fd5b604051608080611e618339810160405280805190602001909190805190602001909190805190602001909190805190602001909190505042841015151561005557600080fd5b83831015151561006457600080fd5b60008211151561007357600080fd5b600073ffffffffffffffffffffffffffffffffffffffff168173ffffffffffffffffffffffffffffffffffffffff16141515156100af57600080fd5b83600181905550826002819055508160048190555080600360006101000a81548173ffffffffffffffffffffffffffffffffffffffff021916908373ffffffffffffffffffffffffffffffffffffffff16021790555061010d61016b565b604051809103906000f080151561012357600080fd5b6000806101000a81548173ffffffffffffffffffffffffffffffffffffffff021916908373ffffffffffffffffffffffffffffffffffffffff1602179055505050505061017b565b6040516117488061071983390190565b61058f8061018a6000396000f300606060405260043610610083576000357c0100000000000000000000000000000000000000000000000000000000900463ffffffff1680632c4e722e1461008e5780633197cbb6146100b7578063521eb273146100e057806378e9792514610135578063ec8ac4d81461015e578063ecb70fb71461018c578063fc0c546a146101b9575b61008c3361020e565b005b341561009957600080fd5b6100a16103d0565b6040518082815260200191505060405180910390f35b34156100c257600080fd5b6100ca6103d6565b6040518082815260200191505060405180910390f35b34156100eb57600080fd5b6100f36103dc565b604051808273ffffffffffffffffffffffffffffffffffffffff1673ffffffffffffffffffffffffffffffffffffffff16815260200191505060405180910390f35b341561014057600080fd5b610148610402565b6040518082815260200191505060405180910390f35b61018a600480803573ffffffffffffffffffffffffffffffffffffffff1690602001909190505061020e565b005b341561019757600080fd5b61019f610408565b604051808215151515815260200191505060405180910390f35b34156101c457600080fd5b6101cc610414565b604051808273ffffffffffffffffffffffffffffffffffffffff1673ffffffffffffffffffffffffffffffffffffffff16815260200191505060405180910390f35b600080600073ffffffffffffffffffffffffffffffffffffffff168373ffffffffffffffffffffffffffffffffffffffff161415151561024d57600080fd5b610255610439565b151561026057600080fd5b34915061026c8261046c565b90506000809054906101000a900473ffffffffffffffffffffffffffffffffffffffff1673ffffffffffffffffffffffffffffffffffffffff1663a9059cbb84836000604051602001526040518363ffffffff167c0100000000000000000000000000000000000000000000000000000000028152600401808373ffffffffffffffffffffffffffffffffffffffff1673ffffffffffffffffffffffffffffffffffffffff16815260200182815260200192505050602060405180830381600087803b151561033a57600080fd5b6102c65a03f1151561034b57600080fd5b50505060405180519050508273ffffffffffffffffffffffffffffffffffffffff163373ffffffffffffffffffffffffffffffffffffffff167f623b3804fa71d67900d064613da8f94b9617215ee90799290593e1745087ad188484604051808381526020018281526020019250505060405180910390a36103cb6104a9565b505050565b60045481565b60025481565b600360009054906101000a900473ffffffffffffffffffffffffffffffffffffffff1681565b60015481565b60006002544211905090565b6000809054906101000a900473ffffffffffffffffffffffffffffffffffffffff1681565b6000806000600154421015801561045257506002544211155b9150600034141590508180156104655750805b9250505090565b60008061049e670de0b6b3a76400006104908560045461050d90919063ffffffff16565b61054890919063ffffffff16565b905080915050919050565b600360009054906101000a900473ffffffffffffffffffffffffffffffffffffffff1673ffffffffffffffffffffffffffffffffffffffff166108fc349081150290604051600060405180830381858888f19350505050151561050b57600080fd5b565b60008060008414156105225760009150610541565b828402905082848281151561053357fe5b0414151561053d57fe5b8091505b5092915050565b600080828481151561055657fe5b04905080915050929150505600a165627a7a72305820b1e0b97b31f780c4dbc84b1cfed54483ddca4544c7d0e897003f8df61e09507c002960606040526012600a0a620f42400263ffffffff16600455341561002257600080fd5b33600360006101000a81548173ffffffffffffffffffffffffffffffffffffffff021916908373ffffffffffffffffffffffffffffffffffffffff1602179055506004546001819055506004546000803373ffffffffffffffffffffffffffffffffffffffff1673ffffffffffffffffffffffffffffffffffffffff16815260200190815260200160002081905550611688806100c06000396000f3006060604052600436106100db576000357c0100000000000000000000000000000000000000000000000000000000900463ffffffff16806306fdde03146100e0578063095ea7b31461016e57806318160ddd146101c857806323b872dd146101f15780632ff2e9dc1461026a578063313ce5671461029357806366188463146102c857806370a08231146103225780638da5cb5b1461036f57806395d89b41146103c4578063a9059cbb14610452578063cce7ec13146104ac578063d73dd62314610506578063dd62ed3e14610560578063f2fde38b146105cc575b600080fd5b34156100eb57600080fd5b6100f3610605565b6040518080602001828103825283818151815260200191508051906020019080838360005b83811015610133578082015181840152602081019050610118565b50505050905090810190601f1680156101605780820380516001836020036101000a031916815260200191505b509250505060405180910390f35b341561017957600080fd5b6101ae600480803573ffffffffffffffffffffffffffffffffffffffff1690602001909190803590602001909190505061063e565b604051808215151515815260200191505060405180910390f35b34156101d357600080fd5b6101db610730565b6040518082815260200191505060405180910390f35b34156101fc57600080fd5b610250600480803573ffffffffffffffffffffffffffffffffffffffff1690602001909190803573ffffffffffffffffffffffffffffffffffffffff1690602001909190803590602001909190505061073a565b604051808215151515815260200191505060405180910390f35b341561027557600080fd5b61027d610af4565b6040518082815260200191505060405180910390f35b341561029e57600080fd5b6102a6610afa565b604051808263ffffffff1663ffffffff16815260200191505060405180910390f35b34156102d357600080fd5b610308600480803573ffffffffffffffffffffffffffffffffffffffff16906020019091908035906020019091905050610aff565b604051808215151515815260200191505060405180910390f35b341561032d57600080fd5b610359600480803573ffffffffffffffffffffffffffffffffffffffff16906020019091905050610d90565b6040518082815260200191505060405180910390f35b341561037a57600080fd5b610382610dd8565b604051808273ffffffffffffffffffffffffffffffffffffffff1673ffffffffffffffffffffffffffffffffffffffff16815260200191505060405180910390f35b34156103cf57600080fd5b6103d7610dfe565b6040518080602001828103825283818151815260200191508051906020019080838360005b838110156104175780820151818401526020810190506103fc565b50505050905090810190601f1680156104445780820380516001836020036101000a031916815260200191505b509250505060405180910390f35b341561045d57600080fd5b610492600480803573ffffffffffffffffffffffffffffffffffffffff16906020019091908035906020019091905050610e37565b604051808215151515815260200191505060405180910390f35b34156104b757600080fd5b6104ec600480803573ffffffffffffffffffffffffffffffffffffffff16906020019091908035906020019091905050611056565b604051808215151515815260200191505060405180910390f35b341561051157600080fd5b610546600480803573ffffffffffffffffffffffffffffffffffffffff1690602001909190803590602001909190505061124a565b604051808215151515815260200191505060405180910390f35b341561056b57600080fd5b6105b6600480803573ffffffffffffffffffffffffffffffffffffffff1690602001909190803573ffffffffffffffffffffffffffffffffffffffff16906020019091905050611446565b6040518082815260200191505060405180910390f35b34156105d757600080fd5b610603600480803573ffffffffffffffffffffffffffffffffffffffff169060200190919050506114cd565b005b6040805190810160405280600a81526020017f4176726120546f6b656e0000000000000000000000000000000000000000000081525081565b600081600260003373ffffffffffffffffffffffffffffffffffffffff1673ffffffffffffffffffffffffffffffffffffffff16815260200190815260200160002060008573ffffffffffffffffffffffffffffffffffffffff1673ffffffffffffffffffffffffffffffffffffffff168152602001908152602001600020819055508273ffffffffffffffffffffffffffffffffffffffff163373ffffffffffffffffffffffffffffffffffffffff167f8c5be1e5ebec7d5bd14f71427d1e84f3dd0314c0f7b2291e5b200ac8c7c3b925846040518082815260200191505060405180910390a36001905092915050565b6000600154905090565b60008073ffffffffffffffffffffffffffffffffffffffff168373ffffffffffffffffffffffffffffffffffffffff161415151561077757600080fd5b6000808573ffffffffffffffffffffffffffffffffffffffff1673ffffffffffffffffffffffffffffffffffffffff1681526020019081526020016000205482111515156107c457600080fd5b600260008573ffffffffffffffffffffffffffffffffffffffff1673ffffffffffffffffffffffffffffffffffffffff16815260200190815260200160002060003373ffffffffffffffffffffffffffffffffffffffff1673ffffffffffffffffffffffffffffffffffffffff16815260200190815260200160002054821115151561084f57600080fd5b6108a0826000808773ffffffffffffffffffffffffffffffffffffffff1673ffffffffffffffffffffffffffffffffffffffff1681526020019081526020016000205461162590919063ffffffff16565b6000808673ffffffffffffffffffffffffffffffffffffffff1673ffffffffffffffffffffffffffffffffffffffff16815260200190815260200160002081905550610933826000808673ffffffffffffffffffffffffffffffffffffffff1673ffffffffffffffffffffffffffffffffffffffff1681526020019081526020016000205461163e90919063ffffffff16565b6000808573ffffffffffffffffffffffffffffffffffffffff1673ffffffffffffffffffffffffffffffffffffffff16815260200190815260200160002081905550610a0482600260008773ffffffffffffffffffffffffffffffffffffffff1673ffffffffffffffffffffffffffffffffffffffff16815260200190815260200160002060003373ffffffffffffffffffffffffffffffffffffffff1673ffffffffffffffffffffffffffffffffffffffff1681526020019081526020016000205461162590919063ffffffff16565b600260008673ffffffffffffffffffffffffffffffffffffffff1673ffffffffffffffffffffffffffffffffffffffff16815260200190815260200160002060003373ffffffffffffffffffffffffffffffffffffffff1673ffffffffffffffffffffffffffffffffffffffff168152602001908152602001600020819055508273ffffffffffffffffffffffffffffffffffffffff168473ffffffffffffffffffffffffffffffffffffffff167fddf252ad1be2c89b69c2b068fc378daa952ba7f163c4a11628f55a4df523b3ef846040518082815260200191505060405180910390a3600190509392505050565b60045481565b601281565b600080600260003373ffffffffffffffffffffffffffffffffffffffff1673ffffffffffffffffffffffffffffffffffffffff16815260200190815260200160002060008573ffffffffffffffffffffffffffffffffffffffff1673ffffffffffffffffffffffffffffffffffffffff16815260200190815260200160002054905080831115610c10576000600260003373ffffffffffffffffffffffffffffffffffffffff1673ffffffffffffffffffffffffffffffffffffffff16815260200190815260200160002060008673ffffffffffffffffffffffffffffffffffffffff1673ffffffffffffffffffffffffffffffffffffffff16815260200190815260200160002081905550610ca4565b610c23838261162590919063ffffffff16565b600260003373ffffffffffffffffffffffffffffffffffffffff1673ffffffffffffffffffffffffffffffffffffffff16815260200190815260200160002060008673ffffffffffffffffffffffffffffffffffffffff1673ffffffffffffffffffffffffffffffffffffffff168152602001908152602001600020819055505b8373ffffffffffffffffffffffffffffffffffffffff163373ffffffffffffffffffffffffffffffffffffffff167f8c5be1e5ebec7d5bd14f71427d1e84f3dd0314c0f7b2291e5b200ac8c7c3b925600260003373ffffffffffffffffffffffffffffffffffffffff1673ffffffffffffffffffffffffffffffffffffffff16815260200190815260200160002060008873ffffffffffffffffffffffffffffffffffffffff1673ffffffffffffffffffffffffffffffffffffffff168152602001908152602001600020546040518082815260200191505060405180910390a3600191505092915050565b60008060008373ffffffffffffffffffffffffffffffffffffffff1673ffffffffffffffffffffffffffffffffffffffff168152602001908152602001600020549050919050565b600360009054906101000a900473ffffffffffffffffffffffffffffffffffffffff1681565b6040805190810160405280600381526020017f415652000000000000000000000000000000000000000000000000000000000081525081565b60008073ffffffffffffffffffffffffffffffffffffffff168373ffffffffffffffffffffffffffffffffffffffff1614151515610e7457600080fd5b6000803373ffffffffffffffffffffffffffffffffffffffff1673ffffffffffffffffffffffffffffffffffffffff168152602001908152602001600020548211151515610ec157600080fd5b610f12826000803373ffffffffffffffffffffffffffffffffffffffff1673ffffffffffffffffffffffffffffffffffffffff1681526020019081526020016000205461162590919063ffffffff16565b6000803373ffffffffffffffffffffffffffffffffffffffff1673ffffffffffffffffffffffffffffffffffffffff16815260200190815260200160002081905550610fa5826000808673ffffffffffffffffffffffffffffffffffffffff1673ffffffffffffffffffffffffffffffffffffffff1681526020019081526020016000205461163e90919063ffffffff16565b6000808573ffffffffffffffffffffffffffffffffffffffff1673ffffffffffffffffffffffffffffffffffffffff168152602001908152602001600020819055508273ffffffffffffffffffffffffffffffffffffffff163373ffffffffffffffffffffffffffffffffffffffff167fddf252ad1be2c89b69c2b068fc378daa952ba7f163c4a11628f55a4df523b3ef846040518082815260200191505060405180910390a36001905092915050565b6000600360009054906101000a900473ffffffffffffffffffffffffffffffffffffffff1673ffffffffffffffffffffffffffffffffffffffff163373ffffffffffffffffffffffffffffffffffffffff161415156110b457600080fd5b611105826000803373ffffffffffffffffffffffffffffffffffffffff1673ffffffffffffffffffffffffffffffffffffffff1681526020019081526020016000205461162590919063ffffffff16565b6000803373ffffffffffffffffffffffffffffffffffffffff1673ffffffffffffffffffffffffffffffffffffffff16815260200190815260200160002081905550611198826000808673ffffffffffffffffffffffffffffffffffffffff1673ffffffffffffffffffffffffffffffffffffffff1681526020019081526020016000205461163e90919063ffffffff16565b6000808573ffffffffffffffffffffffffffffffffffffffff1673ffffffffffffffffffffffffffffffffffffffff168152602001908152602001600020819055508273ffffffffffffffffffffffffffffffffffffffff16600073ffffffffffffffffffffffffffffffffffffffff167fddf252ad1be2c89b69c2b068fc378daa952ba7f163c4a11628f55a4df523b3ef846040518082815260200191505060405180910390a36001905092915050565b60006112db82600260003373ffffffffffffffffffffffffffffffffffffffff1673ffffffffffffffffffffffffffffffffffffffff16815260200190815260200160002060008673ffffffffffffffffffffffffffffffffffffffff1673ffffffffffffffffffffffffffffffffffffffff1681526020019081526020016000205461163e90919063ffffffff16565b600260003373ffffffffffffffffffffffffffffffffffffffff1673ffffffffffffffffffffffffffffffffffffffff16815260200190815260200160002060008573ffffffffffffffffffffffffffffffffffffffff1673ffffffffffffffffffffffffffffffffffffffff168152602001908152602001600020819055508273ffffffffffffffffffffffffffffffffffffffff163373ffffffffffffffffffffffffffffffffffffffff167f8c5be1e5ebec7d5bd14f71427d1e84f3dd0314c0f7b2291e5b200ac8c7c3b925600260003373ffffffffffffffffffffffffffffffffffffffff1673ffffffffffffffffffffffffffffffffffffffff16815260200190815260200160002060008773ffffffffffffffffffffffffffffffffffffffff1673ffffffffffffffffffffffffffffffffffffffff168152602001908152602001600020546040518082815260200191505060405180910390a36001905092915050565b6000600260008473ffffffffffffffffffffffffffffffffffffffff1673ffffffffffffffffffffffffffffffffffffffff16815260200190815260200160002060008373ffffffffffffffffffffffffffffffffffffffff1673ffffffffffffffffffffffffffffffffffffffff16815260200190815260200160002054905092915050565b600360009054906101000a900473ffffffffffffffffffffffffffffffffffffffff1673ffffffffffffffffffffffffffffffffffffffff163373ffffffffffffffffffffffffffffffffffffffff1614151561152957600080fd5b600073ffffffffffffffffffffffffffffffffffffffff168173ffffffffffffffffffffffffffffffffffffffff161415151561156557600080fd5b8073ffffffffffffffffffffffffffffffffffffffff16600360009054906101000a900473ffffffffffffffffffffffffffffffffffffffff1673ffffffffffffffffffffffffffffffffffffffff167f8be0079c531659141344cd1fd0a4f28419497f9722a3daafe3b4186f6b6457e060405160405180910390a380600360006101000a81548173ffffffffffffffffffffffffffffffffffffffff021916908373ffffffffffffffffffffffffffffffffffffffff16021790555050565b600082821115151561163357fe5b818303905092915050565b600080828401905083811015151561165257fe5b80915050929150505600a165627a7a7230582061a85b94111d91636eee07521c3de7784480eeaa86e2808f974cecf1e9c1f7fc0029",
  "source": "pragma solidity ^0.4.18;\r\n\r\nimport '../node_modules/zeppelin-solidity/contracts/token/ERC20/StandardToken.sol';\r\nimport '../node_modules/zeppelin-solidity/contracts/math/SafeMath.sol';\r\nimport './AvraToken.sol';\r\n\r\n\r\n\r\n/**\r\n * @title Crowdsale\r\n * @dev Crowdsale is a base contract for managing a token crowdsale.\r\n * Crowdsales have a start and end timestamps, where investors can make\r\n * token purchases and the crowdsale will assign them tokens based\r\n * on a token per ETH rate. Funds collected are forwarded to a wallet\r\n * as they arrive.\r\n */\r\ncontract Crowdsale {\r\n    using SafeMath for uint256;\r\n\r\n    // The token being sold\r\n    AvraToken public token;\r\n\r\n    // start and end timestamps where investments are allowed (both inclusive)\r\n    uint256 public startTime;\r\n    uint256 public endTime;\r\n\r\n    // address where funds are collected\r\n    address public wallet;\r\n\r\n    // how many token units a buyer gets per wei\r\n    uint256 public rate;\r\n\r\n\r\n    event TokenPurchase(address indexed purchaser, address indexed beneficiary, uint256 value, uint256 amount);\r\n\r\n\r\n    function Crowdsale(uint256 _startTime, uint256 _endTime, uint256 _rate, address _wallet) public {\r\n        require(_startTime >= now);\r\n        require(_endTime >= _startTime);\r\n        require(_rate > 0);\r\n        require(_wallet != address(0));\r\n        // require(_token != address(0));\r\n\r\n        startTime = _startTime;\r\n        endTime = _endTime;\r\n        rate = _rate;\r\n        wallet = _wallet;\r\n        // token = _token;\r\n        token = new AvraToken();\r\n    }\r\n\r\n    // fallback function can be used to buy tokens\r\n    function () external payable {\r\n        buyTokens(msg.sender);\r\n    }\r\n\r\n    // low level token purchase function\r\n    function buyTokens(address beneficiary) public payable {\r\n        require(beneficiary != address(0));\r\n        require(validPurchase());\r\n\r\n        uint256 weiAmount = msg.value;\r\n\r\n        // calculate token amount to be created\r\n        uint256 tokens = getTokenAmount(weiAmount);\r\n\r\n\r\n      //  token.buy(beneficiary, tokens);\r\n        token.transfer(beneficiary, tokens);\r\n        TokenPurchase(msg.sender, beneficiary, weiAmount, tokens);\r\n\r\n        forwardFunds();\r\n    }\r\n\r\n    // @return true if crowdsale event has ended\r\n    function hasEnded() public view returns (bool) {\r\n        return now > endTime;\r\n    }\r\n\r\n    // Override this method to have a way to add business logic to your crowdsale when buying\r\n    function getTokenAmount(uint256 weiAmount) internal view returns(uint256) {\r\n        uint tokens = rate.mul(weiAmount).div(1 ether);\r\n        return tokens;\r\n    }\r\n\r\n    // send ether to the fund collection wallet\r\n    // override to create custom fund forwarding mechanisms\r\n    function forwardFunds() internal {\r\n        wallet.transfer(msg.value);\r\n    }\r\n\r\n    // @return true if the transaction can buy tokens\r\n    function validPurchase() internal view returns (bool) {\r\n        bool withinPeriod = now >= startTime && now <= endTime;\r\n        bool nonZeroPurchase = msg.value != 0;\r\n        return withinPeriod && nonZeroPurchase;\r\n    }\r\n\r\n}\r\n",
  "sourcePath": "D:\\programming\\node\\webpack_example\\contracts\\Crowdsale.sol",
  "compiler": {
    "name": "solc",
    "version": "0.4.19+commit.c4cbbb05.Emscripten.clang"
  },
  "schemaVersion": "1.0.1",
  "updatedAt": "2018-02-18T19:16:56.780Z"
}